:1000000014C02FC02DC02CC02BC02AC059C028C07E
:1000100027C026C025C024C023C022C021C020C0C4
:100020001FC01EC01DC01CC01BC011241FBECFE5B9
:10003000D1E0DEBFCDBF10E0A0E6B0E0E2E2F3E049
:1000400002C005900D92A236B107D9F720E0A2E6D2
:10005000B0E001C01D92AA36B207E1F753D15FC1EB
:10006000CFCF1F920F920FB60F9211248F939F93B1
:1000700081E090E090936900809368009F918F9158
:100080000F900FBE0F901F90189580916600909171
:1000900067008F33910571F410926700109266002B
:1000A0008091620090916300019690936300809329
:1000B000620008950196909367008093660008950A
:1000C0001F920F920FB60F9211242F933F934F93CD
:1000D0005F936F937F938F939F93AF93BF93EF93B0
:1000E000FF93D3DFFF91EF91BF91AF919F918F91DC
:1000F0007F916F915F914F913F912F910F900FBE24
:100100000F901F90189510BE13BE83B7856083BFF4
:10011000789412BE89B7826089BF089587B38F60D3
:1001200087BB8BB780648BBF85B78E6085BF089512
:10013000F5DFE9CF809164009091650082309105F0
:1001400009F497C03CF4009761F08130910509F4FF
:100150009CC008958330910509F4B5C0049749F116
:10016000089585E090E0909361008093600086E0C0
:1001700088BB8091680090916900009729F41092E3
:100180006500109264000895019709F0BAC080914B
:100190006200909163000A970CF4B3C0109267005C
:1001A00010926600109263001092620084E090E06A
:1001B000A4C0209162003091630080916000909112
:1001C000610023303105CCF50597B9F480916600C4
:1001D000909167008E31910531F08A35910519F0C3
:1001E0008639910511F482E007C08C33910519F02E
:1001F0008837910511F486E088BB8091600090916A
:100200006100069709F07DC08091660090916700BB
:100210008E31910531F08A35910519F086399105B5
:1002200011F488E008C08C33910521F088379105DE
:1002300009F067C089E088BB08958530910559F4BD
:100240001092630010926200109267001092660094
:1002500082E090E052C0069709F053C0109263000C
:1002600010926200109267001092660083E090E0A6
:1002700044C02AE028BB209162003091630012162E
:100280001306DCF581E090E011C029E028BB26E0F0
:1002900030E0309361002093600020916200309143
:1002A00063002A3031054CF184E090E090936500C2
:1002B00080936400109267001092660010926300B1
:1002C0001092620008952AE028BB209162003091CC
:1002D0006300121613068CF41092650010926400ED
:1002E00010926700109266001092630010926200F4
:1002F00010926900109268000895909365008093B1
:100300006400089588B318BA1092650010926400D2
:1003100010926900109268000BDF0CDFFECFF8949A
:02032000FFCF0D
:020322000500D4
:00000001FF
